{
  "contractName": "HealthcareRecord",
  "abi": [
    {
      "anonymous": false,
      "inputs": [
        {
          "indexed": true,
          "internalType": "address",
          "name": "patientAddress",
          "type": "address"
        },
        {
          "indexed": false,
          "internalType": "string",
          "name": "name",
          "type": "string"
        },
        {
          "indexed": false,
          "internalType": "string",
          "name": "surname",
          "type": "string"
        }
      ],
      "name": "PatientAdded",
      "type": "event"
    },
    {
      "inputs": [
        {
          "internalType": "address",
          "name": "patientAddress",
          "type": "address"
        },
        {
          "internalType": "string",
          "name": "name",
          "type": "string"
        },
        {
          "internalType": "string",
          "name": "surname",
          "type": "string"
        },
        {
          "internalType": "string",
          "name": "email",
          "type": "string"
        },
        {
          "internalType": "string",
          "name": "gender",
          "type": "string"
        },
        {
          "internalType": "string",
          "name": "doctorName",
          "type": "string"
        },
        {
          "internalType": "uint256",
          "name": "doctorId",
          "type": "uint256"
        },
        {
          "internalType": "string",
          "name": "results",
          "type": "string"
        },
        {
          "internalType": "string",
          "name": "predictions",
          "type": "string"
        },
        {
          "internalType": "string",
          "name": "cid",
          "type": "string"
        }
      ],
      "name": "addPatient",
      "outputs": [],
      "stateMutability": "nonpayable",
      "type": "function"
    },
    {
      "inputs": [
        {
          "internalType": "address",
          "name": "patientAddress",
          "type": "address"
        }
      ],
      "name": "getPatient",
      "outputs": [
        {
          "components": [
            {
              "internalType": "string",
              "name": "name",
              "type": "string"
            },
            {
              "internalType": "string",
              "name": "surname",
              "type": "string"
            },
            {
              "internalType": "string",
              "name": "email",
              "type": "string"
            },
            {
              "internalType": "string",
              "name": "gender",
              "type": "string"
            },
            {
              "internalType": "string",
              "name": "doctorName",
              "type": "string"
            },
            {
              "internalType": "uint256",
              "name": "doctorId",
              "type": "uint256"
            },
            {
              "internalType": "string",
              "name": "results",
              "type": "string"
            },
            {
              "internalType": "string",
              "name": "predictions",
              "type": "string"
            },
            {
              "internalType": "string",
              "name": "cid",
              "type": "string"
            }
          ],
          "internalType": "struct HealthcareRecord.Patient",
          "name": "",
          "type": "tuple"
        }
      ],
      "stateMutability": "view",
      "type": "function",
      "constant": true
    },
    {
      "inputs": [],
      "name": "getAllPatients",
      "outputs": [
        {
          "internalType": "address[]",
          "name": "",
          "type": "address[]"
        }
      ],
      "stateMutability": "view",
      "type": "function",
      "constant": true
    }
  ],
  "bytecode": "0x6080604052348015600f57600080fd5b506113f68061001f6000396000f3fe608060405234801561001057600080fd5b506004361061005e576000357c01000000000000000000000000000000000000000000000000000000009004806318a231a914610063578063b5368e2014610081578063b5a69c80146100b1575b600080fd5b61006b6100cd565b6040516100789190610a13565b60405180910390f35b61009b60048036038101906100969190610a75565b61015b565b6040516100a89190610c41565b60405180910390f35b6100cb60048036038101906100c69190610dc4565b61064e565b005b6060600180548060200260200160405190810160405280929190818152602001828054801561015157602002820191906000526020600020905b8160009054906101000a900473ffffffffffffffffffffffffffffffffffffffff1673ffffffffffffffffffffffffffffffffffffffff1681526020019060010190808311610107575b5050505050905090565b6101636108d7565b6000808373ffffffffffffffffffffffffffffffffffffffff1673ffffffffffffffffffffffffffffffffffffffff168152602001908152602001600020604051806101200160405290816000820180546101bd90610fb2565b80601f01602080910402602001604051908101604052809291908181526020018280546101e990610fb2565b80156102365780601f1061020b57610100808354040283529160200191610236565b820191906000526020600020905b81548152906001019060200180831161021957829003601f168201915b5050505050815260200160018201805461024f90610fb2565b80601f016020809104026020016040519081016040528092919081815260200182805461027b90610fb2565b80156102c85780601f1061029d576101008083540402835291602001916102c8565b820191906000526020600020905b8154815290600101906020018083116102ab57829003601f168201915b505050505081526020016002820180546102e190610fb2565b80601f016020809104026020016040519081016040528092919081815260200182805461030d90610fb2565b801561035a5780601f1061032f5761010080835404028352916020019161035a565b820191906000526020600020905b81548152906001019060200180831161033d57829003601f168201915b5050505050815260200160038201805461037390610fb2565b80601f016020809104026020016040519081016040528092919081815260200182805461039f90610fb2565b80156103ec5780601f106103c1576101008083540402835291602001916103ec565b820191906000526020600020905b8154815290600101906020018083116103cf57829003601f168201915b5050505050815260200160048201805461040590610fb2565b80601f016020809104026020016040519081016040528092919081815260200182805461043190610fb2565b801561047e5780601f106104535761010080835404028352916020019161047e565b820191906000526020600020905b81548152906001019060200180831161046157829003601f168201915b50505050508152602001600582015481526020016006820180546104a190610fb2565b80601f01602080910402602001604051908101604052809291908181526020018280546104cd90610fb2565b801561051a5780601f106104ef5761010080835404028352916020019161051a565b820191906000526020600020905b8154815290600101906020018083116104fd57829003601f168201915b5050505050815260200160078201805461053390610fb2565b80601f016020809104026020016040519081016040528092919081815260200182805461055f90610fb2565b80156105ac5780601f10610581576101008083540402835291602001916105ac565b820191906000526020600020905b81548152906001019060200180831161058f57829003601f168201915b505050505081526020016008820180546105c590610fb2565b80601f01602080910402602001604051908101604052809291908181526020018280546105f190610fb2565b801561063e5780601f106106135761010080835404028352916020019161063e565b820191906000526020600020905b81548152906001019060200180831161062157829003601f168201915b5050505050815250509050919050565b6000895111610692576040517f08c379a000000000000000000000000000000000000000000000000000000000815260040161068990611040565b60405180910390fd5b60008751116106d6576040517f08c379a00000000000000000000000000000000000000000000000000000000081526004016106cd906110ac565b60405180910390fd5b60006040518061012001604052808b81526020018a8152602001898152602001888152602001878152602001868152602001858152602001848152602001838152509050806000808d73ffffffffffffffffffffffffffffffffffffffff1673ffffffffffffffffffffffffffffffffffffffff168152602001908152602001600020600082015181600001908161076e919061127e565b506020820151816001019081610784919061127e565b50604082015181600201908161079a919061127e565b5060608201518160030190816107b0919061127e565b5060808201518160040190816107c6919061127e565b5060a0820151816005015560c08201518160060190816107e6919061127e565b5060e08201518160070190816107fc919061127e565b50610100820151816008019081610813919061127e565b5090505060018b9080600181540180825580915050600190039060005260206000200160009091909190916101000a81548173ffffffffffffffffffffffffffffffffffffffff021916908373ffffffffffffffffffffffffffffffffffffffff1602179055508a73ffffffffffffffffffffffffffffffffffffffff167ff8fa6104bf1bec3d86bdc7e3dd1f17b29f12ad398cf5ae30136ec13a835658fd8b8b6040516108c2929190611389565b60405180910390a25050505050505050505050565b6040518061012001604052806060815260200160608152602001606081526020016060815260200160608152602001600081526020016060815260200160608152602001606081525090565b600081519050919050565b600082825260208201905092915050565b6000819050602082019050919050565b600073ffffffffffffffffffffffffffffffffffffffff82169050919050565b600061097a8261094f565b9050919050565b61098a8161096f565b82525050565b600061099c8383610981565b60208301905092915050565b6000602082019050919050565b60006109c082610923565b6109ca818561092e565b93506109d58361093f565b8060005b83811015610a065781516109ed8882610990565b97506109f8836109a8565b9250506001810190506109d9565b5085935050505092915050565b60006020820190508181036000830152610a2d81846109b5565b905092915050565b6000604051905090565b600080fd5b600080fd5b610a528161096f565b8114610a5d57600080fd5b50565b600081359050610a6f81610a49565b92915050565b600060208284031215610a8b57610a8a610a3f565b5b6000610a9984828501610a60565b91505092915050565b600081519050919050565b600082825260208201905092915050565b60005b83811015610adc578082015181840152602081019050610ac1565b60008484015250505050565b6000601f19601f8301169050919050565b6000610b0482610aa2565b610b0e8185610aad565b9350610b1e818560208601610abe565b610b2781610ae8565b840191505092915050565b6000819050919050565b610b4581610b32565b82525050565b6000610120830160008301518482036000860152610b698282610af9565b91505060208301518482036020860152610b838282610af9565b91505060408301518482036040860152610b9d8282610af9565b91505060608301518482036060860152610bb78282610af9565b91505060808301518482036080860152610bd18282610af9565b91505060a0830151610be660a0860182610b3c565b5060c083015184820360c0860152610bfe8282610af9565b91505060e083015184820360e0860152610c188282610af9565b915050610100830151848203610100860152610c348282610af9565b9150508091505092915050565b60006020820190508181036000830152610c5b8184610b4b565b905092915050565b600080fd5b600080fd5b7f4e487b7100000000000000000000000000000000000000000000000000000000600052604160045260246000fd5b610ca582610ae8565b810181811067ffffffffffffffff82111715610cc457610cc3610c6d565b5b80604052505050565b6000610cd7610a35565b9050610ce38282610c9c565b919050565b600067ffffffffffffffff821115610d0357610d02610c6d565b5b610d0c82610ae8565b9050602081019050919050565b82818337600083830152505050565b6000610d3b610d3684610ce8565b610ccd565b905082815260208101848484011115610d5757610d56610c68565b5b610d62848285610d19565b509392505050565b600082601f830112610d7f57610d7e610c63565b5b8135610d8f848260208601610d28565b91505092915050565b610da181610b32565b8114610dac57600080fd5b50565b600081359050610dbe81610d98565b92915050565b6000806000806000806000806000806101408b8d031215610de857610de7610a3f565b5b6000610df68d828e01610a60565b9a505060208b013567ffffffffffffffff811115610e1757610e16610a44565b5b610e238d828e01610d6a565b99505060408b013567ffffffffffffffff811115610e4457610e43610a44565b5b610e508d828e01610d6a565b98505060608b013567ffffffffffffffff811115610e7157610e70610a44565b5b610e7d8d828e01610d6a565b97505060808b013567ffffffffffffffff811115610e9e57610e9d610a44565b5b610eaa8d828e01610d6a565b96505060a08b013567ffffffffffffffff811115610ecb57610eca610a44565b5b610ed78d828e01610d6a565b95505060c0610ee88d828e01610daf565b94505060e08b013567ffffffffffffffff811115610f0957610f08610a44565b5b610f158d828e01610d6a565b9350506101008b013567ffffffffffffffff811115610f3757610f36610a44565b5b610f438d828e01610d6a565b9250506101208b013567ffffffffffffffff811115610f6557610f64610a44565b5b610f718d828e01610d6a565b9150509295989b9194979a5092959850565b7f4e487b7100000000000000000000000000000000000000000000000000000000600052602260045260246000fd5b60006002820490506001821680610fca57607f821691505b602082108103610fdd57610fdc610f83565b5b50919050565b600082825260208201905092915050565b7f4e616d6520697320726571756972656400000000000000000000000000000000600082015250565b600061102a601083610fe3565b915061103582610ff4565b602082019050919050565b600060208201905081810360008301526110598161101d565b9050919050565b7f456d61696c206973207265717569726564000000000000000000000000000000600082015250565b6000611096601183610fe3565b91506110a182611060565b602082019050919050565b600060208201905081810360008301526110c581611089565b9050919050565b60008190508160005260206000209050919050565b60006020601f8301049050919050565b60008160020a8302905092915050565b6000600883026111317fffffffffffffffffffffffffffffffffffffffffffffffffffffffffffffffff826110f1565b61113b86836110f1565b95508019841693508086168417925050509392505050565b6000819050919050565b600061117861117361116e84610b32565b611153565b610b32565b9050919050565b6000819050919050565b6111928361115d565b6111a661119e8261117f565b848454611101565b825550505050565b600090565b6111bb6111ae565b6111c6818484611189565b505050565b5b818110156111ea576111df6000826111b3565b6001810190506111cc565b5050565b601f82111561122f57611200816110cc565b611209846110e1565b81016020851015611218578190505b61122c611224856110e1565b8301826111cb565b50505b505050565b60008160020a8304905092915050565b600061125560001984600802611234565b1980831691505092915050565b600061126e8383611244565b9150826002028217905092915050565b61128782610aa2565b67ffffffffffffffff8111156112a05761129f610c6d565b5b6112aa8254610fb2565b6112b58282856111ee565b600060209050601f8311600181146112e857600084156112d6578287015190505b6112e08582611262565b865550611348565b601f1984166112f6866110cc565b60005b8281101561131e578489015182556001820191506020850194506020810190506112f9565b8683101561133b5784890151611337601f891682611244565b8355505b6001600288020188555050505b505050505050565b600061135b82610aa2565b6113658185610fe3565b9350611375818560208601610abe565b61137e81610ae8565b840191505092915050565b600060408201905081810360008301526113a38185611350565b905081810360208301526113b78184611350565b9050939250505056fea26469706673582212208fc0f1eebb7d8026006d210268e632fc4a97f1e55a6715cbf19c5a689255c48964736f6c634300081c0033",
  "immutableReferences": {},
  "source": "// SPDX-License-Identifier: MIT\r\npragma solidity ^0.8.0;\r\n\r\ncontract HealthcareRecord {\r\n    struct Patient {\r\n        string name;\r\n        string surname;\r\n        string email;\r\n        string gender;\r\n        string doctorName;\r\n        uint doctorId;\r\n        string results;\r\n        string predictions;\r\n        string cid; // Content Identifier for IPFS/File Storage\r\n    }\r\n\r\n    mapping(address => Patient) private patients;\r\n    address[] private patientAddresses;\r\n\r\n    event PatientAdded(\r\n        address indexed patientAddress,\r\n        string name,\r\n        string surname\r\n    );\r\n\r\n    function addPatient(\r\n        address patientAddress,\r\n        string memory name,\r\n        string memory surname,\r\n        string memory email,\r\n        string memory gender,\r\n        string memory doctorName,\r\n        uint doctorId,\r\n        string memory results,\r\n        string memory predictions,\r\n        string memory cid\r\n    ) public {\r\n        require(bytes(name).length > 0, \"Name is required\");\r\n        require(bytes(email).length > 0, \"Email is required\");\r\n\r\n        Patient memory newPatient = Patient(\r\n            name,\r\n            surname,\r\n            email,\r\n            gender,\r\n            doctorName,\r\n            doctorId,\r\n            results,\r\n            predictions,\r\n            cid\r\n        );\r\n\r\n        patients[patientAddress] = newPatient;\r\n        patientAddresses.push(patientAddress);\r\n\r\n        emit PatientAdded(patientAddress, name, surname);\r\n    }\r\n\r\n    function getPatient(address patientAddress)\r\n        public\r\n        view\r\n        returns (Patient memory)\r\n    {\r\n        return patients[patientAddress];\r\n    }\r\n\r\n    function getAllPatients() public view returns (address[] memory) {\r\n        return patientAddresses;\r\n    }\r\n}\r\n",
  "sourcePath": "C:\\Users\\ASUS\\healthcare_flutter_project\\flutter_app\\contracts\\HealthcareRecord.sol",
  "compiler": {
    "name": "solc",
    "version": "0.8.28+commit.7893614a.Emscripten.clang"
  },
  "schemaVersion": "3.4.16",
  "updatedAt": "2024-12-08T15:45:27.689Z",
  "networkType": "ethereum",
  "devdoc": {
    "kind": "dev",
    "methods": {},
    "version": 1
  },
  "userdoc": {
    "kind": "user",
    "methods": {},
    "version": 1
  }
}