{
  "contractName": "Login",
  "abi": [
    {
      "inputs": [
        {
          "internalType": "string",
          "name": "_username",
          "type": "string"
        },
        {
          "internalType": "string",
          "name": "_password",
          "type": "string"
        }
      ],
      "name": "registerUser",
      "outputs": [],
      "stateMutability": "nonpayable",
      "type": "function"
    },
    {
      "inputs": [
        {
          "internalType": "string",
          "name": "_username",
          "type": "string"
        },
        {
          "internalType": "string",
          "name": "_password",
          "type": "string"
        }
      ],
      "name": "authenticate",
      "outputs": [
        {
          "internalType": "bool",
          "name": "",
          "type": "bool"
        }
      ],
      "stateMutability": "view",
      "type": "function",
      "constant": true
    }
  ],
  "bytecode": "0x6080604052348015600f57600080fd5b506108ad8061001f6000396000f3fe608060405234801561001057600080fd5b5060043610610053576000357c0100000000000000000000000000000000000000000000000000000000900480631d2e4afd14610058578063544541b314610074575b600080fd5b610072600480360381019061006d919061031c565b6100a4565b005b61008e6004803603810190610089919061031c565b610179565b60405161009b91906103af565b60405180910390f35b600080836040516100b5919061043b565b908152602001604051809103902060000180546100d190610481565b905014610113576040517f08c379a000000000000000000000000000000000000000000000000000000000815260040161010a9061050f565b60405180910390fd5b604051806040016040528083815260200182815250600083604051610138919061043b565b9081526020016040518091039020600082015181600001908161015b91906106eb565b50602082015181600101908161017191906106eb565b509050505050565b60008180519060200120600084604051610193919061043b565b90815260200160405180910390206001016040516101b19190610860565b604051809103902014905092915050565b6000604051905090565b600080fd5b600080fd5b600080fd5b600080fd5b6000601f19601f8301169050919050565b7f4e487b7100000000000000000000000000000000000000000000000000000000600052604160045260246000fd5b610229826101e0565b810181811067ffffffffffffffff82111715610248576102476101f1565b5b80604052505050565b600061025b6101c2565b90506102678282610220565b919050565b600067ffffffffffffffff821115610287576102866101f1565b5b610290826101e0565b9050602081019050919050565b82818337600083830152505050565b60006102bf6102ba8461026c565b610251565b9050828152602081018484840111156102db576102da6101db565b5b6102e684828561029d565b509392505050565b600082601f830112610303576103026101d6565b5b81356103138482602086016102ac565b91505092915050565b60008060408385031215610333576103326101cc565b5b600083013567ffffffffffffffff811115610351576103506101d1565b5b61035d858286016102ee565b925050602083013567ffffffffffffffff81111561037e5761037d6101d1565b5b61038a858286016102ee565b9150509250929050565b60008115159050919050565b6103a981610394565b82525050565b60006020820190506103c460008301846103a0565b92915050565b600081519050919050565b600081905092915050565b60005b838110156103fe5780820151818401526020810190506103e3565b60008484015250505050565b6000610415826103ca565b61041f81856103d5565b935061042f8185602086016103e0565b80840191505092915050565b6000610447828461040a565b915081905092915050565b7f4e487b7100000000000000000000000000000000000000000000000000000000600052602260045260246000fd5b6000600282049050600182168061049957607f821691505b6020821081036104ac576104ab610452565b5b50919050565b600082825260208201905092915050565b7f5573657220616c72656164792065786973747300000000000000000000000000600082015250565b60006104f96013836104b2565b9150610504826104c3565b602082019050919050565b60006020820190508181036000830152610528816104ec565b9050919050565b60008190508160005260206000209050919050565b60006020601f8301049050919050565b60008160020a8302905092915050565b6000600883026105947fffffffffffffffffffffffffffffffffffffffffffffffffffffffffffffffff82610554565b61059e8683610554565b95508019841693508086168417925050509392505050565b6000819050919050565b6000819050919050565b60006105e56105e06105db846105b6565b6105c0565b6105b6565b9050919050565b6000819050919050565b6105ff836105ca565b61061361060b826105ec565b848454610564565b825550505050565b600090565b61062861061b565b6106338184846105f6565b505050565b5b818110156106575761064c600082610620565b600181019050610639565b5050565b601f82111561069c5761066d8161052f565b61067684610544565b81016020851015610685578190505b61069961069185610544565b830182610638565b50505b505050565b60008160020a8304905092915050565b60006106c2600019846008026106a1565b1980831691505092915050565b60006106db83836106b1565b9150826002028217905092915050565b6106f4826103ca565b67ffffffffffffffff81111561070d5761070c6101f1565b5b6107178254610481565b61072282828561065b565b600060209050601f8311600181146107555760008415610743578287015190505b61074d85826106cf565b8655506107b5565b601f1984166107638661052f565b60005b8281101561078b57848901518255600182019150602085019450602081019050610766565b868310156107a857848901516107a4601f8916826106b1565b8355505b6001600288020188555050505b505050505050565b600081905092915050565b60008190508160005260206000209050919050565b600081546107ea81610481565b6107f481866107bd565b9450600182166000811461080f576001811461082457610857565b60ff1983168652811515820286019350610857565b61082d856107c8565b60005b8381101561084f57815481890152600182019150602081019050610830565b838801955050505b50505092915050565b600061086c82846107dd565b91508190509291505056fea2646970667358221220052a0b45494ba6c1d415c5194648e4fc2362dbf7bbdd560c3b367001b844ce2a64736f6c634300081c0033",
  "immutableReferences": {},
  "source": "// SPDX-License-Identifier: MIT\r\npragma solidity ^0.8.0;\r\n\r\ncontract Login {\r\n    struct User {\r\n        string username;\r\n        string password; // Do not store plain passwords in production\r\n    }\r\n\r\n    mapping(string => User) private users;\r\n\r\n    function registerUser(string memory _username, string memory _password) public {\r\n        require(bytes(users[_username].username).length == 0, \"User already exists\");\r\n        users[_username] = User(_username, _password);\r\n    }\r\n\r\n    function authenticate(string memory _username, string memory _password) public view returns (bool) {\r\n        return keccak256(bytes(users[_username].password)) == keccak256(bytes(_password));\r\n    }\r\n}",
  "sourcePath": "C:\\Users\\ASUS\\healthcare_flutter_project\\flutter_app\\contracts\\Login.sol",
  "compiler": {
    "name": "solc",
    "version": "0.8.28+commit.7893614a.Emscripten.clang"
  },
  "schemaVersion": "3.4.16",
  "updatedAt": "2024-12-08T15:45:27.801Z",
  "networkType": "ethereum",
  "devdoc": {
    "kind": "dev",
    "methods": {},
    "version": 1
  },
  "userdoc": {
    "kind": "user",
    "methods": {},
    "version": 1
  }
}